:100000000C94A9010C94C6010C94C6010C94C60171
:100010000C94C6010C94C6010C94C6010C94C60144
:100020000C94C6010C94C6010C94C6010C94C60134
:100030000C94C6010C94C6010C94C6010C94C60124
:100040000C94C6010C94C6010C94C6010C94C60114
:100050000C94C6010C94C6010C94C6010C94C60104
:100060000C94C6010C94C6010C94C6010C94C601F4
:100070000C94C6010C94C6010C94C6010C94C601E4
:100080000C94C6010C94C6010C94C6010C94C601D4
:100090000C94C6010C94C6010C94C6010C94C601C4
:1000A0000C94C6010C94C6010C94C6010C94C601B4
:1000B0000C94C601DE01EC01E001E201E401E6017D
:1000C000E8011E053005320520052205300524050E
:1000D000300530053005300526053005280530058A
:1000E000300530052A052C052E0584059605980552
:1000F0008605880596058A05960596059605960552
:100100008C0596058E059605960596059005920533
:100110009405320744074607340736074407380773
:1001200044074407440744073A0744073C07440789
:10013000440744073E07400742079807AB07AA0752
:100140009A079C07AB079E07AB07AB07AB07AB074C
:10015000A007AB07A207AB07AB07AB07A407A6072F
:10016000A8076108730875086308650873086708BD
:100170007308730873087308690873086B087308B9
:10018000730873086D086F087108C308D508D7088D
:10019000C508C708D508C908D508D508D508D508A1
:1001A000CB08D508CD08D508D508D508CF08D10883
:1001B000D308620A740A760A640A660A740A680A2C
:1001C000740A740A740A740A6A0A740A6C0A740A51
:1001D000740A740A6E0A700A720AC60AD90AD80A20
:1001E000C80ACA0AD90ACC0AD90AD90AD90AD90A24
:1001F000CE0AD90AD00AD90AD90AD90AD20AD40A07
:10020000D60AC003200410081008000000000000F7
:1002100000006006100800000000C0032004100861
:100220001008000000000000000010086006000038
:1002300000008001C003E007F00FF81DF81FF81F51
:10024000F81FF00FE007C0038001C003E007F00FC4
:10025000F81FF81FF81FF81FF81DF00FE007C00384
:1002600080010000000F020202020000000F0202E3
:100270000202000606000006060000060600000650
:100280000600000E040004060400040E0000040C26
:10029000040000060C00080C040000060C00080C0A
:1002A0000400000C0600040C0800000C0600040CFE
:1002B0000800000E020006040400080E00000404FA
:1002C0000C00000E080004040600020E00000C04DE
:1002D0000400000000000000001C22223E22222216
:1002E0003C22223C22223C3C22222222223C3E2052
:1002F000203C20203E1E20202E22221E22222222AE
:1003000022223E22322A262222223C22223C282459
:10031000221E20201C02023C3E080808080808078C
:100320000505050702060202070701070407070182
:10033000070107050507010107040701070704076F
:100340000507070101010107050705070705070163
:10035000070011241FBECFEFD8E0DEBFCDBF11E0F4
:10036000A0E0B1E0E8ECF9E102C005900D92A831FF
:10037000B107D9F722E0A8E1B1E001C01D92A13791
:10038000B207E1F70E94AB0B0C94E20C0C94000056
:100390008091010180FF04C0869598EB892701C0F8
:1003A000869580930101089590E0FC013197E73034
:1003B000F10580F4E65AFF4F0C94CD0C8CE30895C0
:1003C00083E3089587E1089583E008958FE3089516
:1003D0008BE0089580E008958FE00895CF93DF9338
:1003E00040912B0150912C01483E23E0520710F020
:1003F00047EE53E09A01ADECBCEC0E94D30C96950D
:10040000879596958795969587959C01220F331F22
:10041000880F991F880F991F880F991F820F931FAC
:100420009A01281B390BE8E2F1E022839A010E942D
:10043000D30CEC01D695C795D695C795D695C7959B
:100440009E010E94D30C96958795969587959695D3
:1004500087959C01220F331F880F991F880F991FC2
:10046000880F991F820F931F9E01281B390B218330
:100470009A013695279536952795ABE7B4E10E940A
:10048000D30CAC01569547959A01ADECBCEC0E949B
:10049000D30C9695879596958795969587959C010B
:1004A000220F331F880F991F880F991F880F991FDC
:1004B000820F931F9A01281B390B2083DF91CF9164
:1004C000089530E018C0832F90E0FC01EE0FFF1F6D
:1004D000880F991F880F991F880F991FE80FF91F20
:1004E000EF5CFE4FE20FF11D10822F5F01C020E094
:1004F0002A3048F33F5F3032D0F310922C01109233
:100500002B010E94EE0110922501109222011092FF
:1005100021011092200110922401109223010895CC
:10052000CF92DF92EF92FF920F931F93CF93DF93BF
:1005300090912D01490F437090E060C0E0912E0131
:10054000F0E0A92FB0E0EE0FFF1FEE0FFF1FE40F4A
:10055000F11DEE0FFF1FEE0FFF1FEA0FFB1FEE59FD
:10056000FD4FE491EE2309F448C050E043C0C52E8E
:10057000D12C03E010E07801EC18FD080E2F10E0FC
:1005800002C015950795EA94E2F700FF32C020916A
:100590003001C82F082E000CDD0BC20FD11D27FD26
:1005A000DA95CC0DDD1D70912F01262F062E000C43
:1005B000330B270F311D77FD3A952A0F3B1FCA30A9
:1005C000D10508F53323ACF020323105F4F489016C
:1005D000000F111F220F331F220F331F220F331F53
:1005E000200F311F2F5C3E4FC20FD31F28812111D6
:1005F0000EC05F5F543008F4BACF9F5F943008F4A8
:100600009DCF81E005C080E003C080E001C080E0B4
:10061000DF91CF911F910F91FF90EF90DF90CF90DE
:100620000895CF93DF9390E055C0C0912E01EC2F39
:10063000F0E080912D01492F50E0EE0FFF1FEE0FEB
:10064000FF1FE80FF11DEE0FFF1FEE0FFF1FE40F5E
:10065000F51FEE59FD4FE491EE23D9F180E037C04C
:10066000A82FB0E063E070E06A1B7B0B2E2F30E018
:1006700002C0359527956A95E2F720FF27C02091A3
:100680003001A20FB11D27FDBA9520912F01BA01AB
:10069000620F711D27FD7A959B01AA30B105B0F458
:1006A0007723A4F0603271058CF4660F771F220F58
:1006B000331F220F331F220F331F260F371F2F5CCC
:1006C0003E4FA20FB31F21E02C0F2C938F5F84307D
:1006D00038F29F5F943008F4A8CFAFE1B0E061C07A
:1006E0008A2F0A2E000C990BFC01EE0FFF1F880FBA
:1006F000991F880F991F880F991FE80FF91FEF5C4A
:10070000FE4FE20FF11D8081882339F02F5F01C079
:1007100020E02A3028F381E001C080E0811131C05F
:100720003FC0272F072E000C330BC9010197462F1E
:1007300050E0FC01EE0FFF1F880F991F880F991FD3
:10074000880F991FE80FF91FEF5CFE4FE40FF51FAC
:100750008081F901EE0FFF1F220F331F220F331F7D
:10076000220F331F2E0F3F1F2F5C3E4FF901E40F66
:10077000F51F80836F5F01C060E06A3090F27150B6
:1007800001C07A2F1716C4F380E006C0E82FF0E00E
:10079000EF5CFE4F10828F5F8A30C0F3BF5FAF5FA8
:1007A000A150AA230CF0B4CFBB23D1F1C0912B01EF
:1007B000D0912C01CE0174E6B79F800D911D1124BC
:1007C00090932C0180932B01883E934030F087EE6C
:1007D00093E090932C0180932B010E94EE019E01E7
:1007E0003695279536952795ABE7B4E10E94D30C53
:1007F000AC015695479520912B0130912C013695EF
:100800002795369527950E94D30C9695879548177E
:10081000590730F488EC90E09093240180932301F1
:10082000DF91CF9108950E94C80195E2899F212D03
:100830001124982F921B9695920F96959695292F95
:10084000220F220F220F291B821B80932E01109250
:100850002D0183E08093300110922F0140E060E091
:1008600080E00E94900291E0811190E0892F08952C
:1008700080912201811119C080912501811115C03B
:1008800040E061E00E949002882331F080912F01C6
:100890008F5F80932F0108950E9411030E9413041B
:1008A000882319F081E0809325010895FB018823B6
:1008B00079F09081911103C0118291E00FC0918174
:1008C0009F5F9183973038F090FF07C090E006C09B
:1008D000118290E003C090E001C091E08083892FF5
:1008E000089520912B0130912C0136952795ABE787
:1008F000B4E10E94D30C9C013695279582E190E0EB
:10090000821B930B8830910514F488E090E080936B
:10091000000108957F928F929F92AF92BF92CF92E3
:10092000DF92EF92FF920F931F93CF93DF9300D04C
:1009300000D0CDB7DEB76C01A12CF7C688E2782EC7
:100940000A2C01C0770C0A94EAF7B12CE9C688B1E9
:10095000807F9B2D9F70892B88B9E12CC4C61E2DEA
:100960001F732FE32E1510F480E201C080E0FB2CF2
:10097000F80E4FE34E1510F400E301C000E10B0D3B
:100980009F2D9695292F30E0812F8695A901480F3C
:10099000511D40FF02C084E101C080E0409122016E
:1009A000442309F4EEC009F4DFC0812F8F0D8C0DB4
:1009B0009FE0998393E39A839CE39B8393E09C83DA
:1009C0008370E1E0F0E0EC0FFD1FE80FF11D808186
:1009D00099E09F1508F062C0163008F45FC046EF3A
:1009E0004F0D3AEF310FEBEA3E9FE12D1124E695D2
:1009F000E695E6959E2F990F9E0F292F220F220F25
:100A0000932F921BF0E0EE5FFE4FE081EE2309F49E
:100A100045C09A3008F042C04E3008F03FC096956D
:100A2000242F26954E2F50E0FA01E154F109E431CC
:100A3000F105B0F4EF59FF4F0C94CD0C41E013C019
:100A400043E011C044E00FC045E00DC046E00BC0DC
:100A500047E009C048E007C049E005C04AE003C0DC
:100A600040E001C042E050E0FA01EE0FFF1FEE0F40
:100A7000FF1FEE0FFF1FE41BF50BE20FF11DEE52FF
:100A8000FD4F249144E050E0491B510930E002C081
:100A9000359527954A95E2F720FD8FE3E7E2EF15BC
:100AA00008F062C0163008F45FC048ED4F0D3AEF11
:100AB000310FEBEA3E9FE12D1124E695E695E69590
:100AC0009E2F990F9E0F292F220F220F932F921BDB
:100AD000F0E0E85FFE4FE081EE2309F445C09A3074
:100AE00008F042C04E3008F03FC09695F42EF694C0
:100AF0004E2F50E0FA01E154F109E431F105B0F470
:100B0000EB58FF4F0C94CD0C21E013C023E011C033
:100B100024E00FC025E00DC026E00BC027E009C08F
:100B200028E007C029E005C02AE003C020E001C09A
:100B300022E030E0F901EE0FFF1FEE0FFF1FEE0F76
:100B4000FF1FE21BF30BEF0DF11DEE52FD4F249141
:100B500044E050E0491B510930E002C0359527952B
:100B60004A95E2F720FD8FE3F82FF3708F2E982F30
:100B7000969596959370992E82958F708370F82E26
:100B800043C21A3031F01B3021F0113211F0103213
:100B900049F41A3021F0113221F480E303C080E3DC
:100BA00001C080E2FF2019F04FE3F41209C01A30AF
:100BB00038F0123228F4F11002C080E301C080E264
:100BC0001C3008F47AC0412F50E0403251050CF03F
:100BD00074C04C50510955954795903208F06DC03E
:100BE0005527C901880F991F880F991F880F991FD2
:100BF000F901EE0FFF1FE80FF91FEF5CFE4FE40F46
:100C0000F51F808160913001062E000C770B46178E
:100C100057070CF446C0FB0134964E175F070CF0E3
:100C200040C0A0912F010A2E000CBB0B2A173B07D6
:100C3000C4F1FD0134962E173F079CF5FA01E61B1F
:100C4000F70BBF01F901EA1BFB0BDF0164307105F3
:100C500040F5FF2334F1349724F590912E01E92FCC
:100C6000F0E070912D01EE0FFF1FEE0FFF1FE70F59
:100C7000F11DEE0FFF1FEE0FFF1FEA0FF11DEE59E2
:100C8000FD4F7491E3E0F0E0E61BF109672F70E09F
:100C900002C075956795EA95E2F760FF02C081E0B2
:100CA000890F882319F00E94D40107C0240F351F33
:100CB00020FD02C080E101C080E09AED910F9531E6
:100CC00050F5F1E0FF1538F52EE02F1520F1163222
:100CD00099F01A3399F042E0F41691F0F21691F07F
:100CE000173291F0193391F083E0F81689F09DE006
:100CF000F91210C080E20FC080E30DC080E30BC08A
:100D000080E309C080E307C080E205C080E203C041
:100D100080E201C085E198ED910F9C3068F5E3E039
:100D2000EF1550F5F8E0FF1538F1E92FE695E69557
:100D30009370E33008F59330F8F4F0E0E85DFE4F8F
:100D4000208130E0F901EE0FFF1FEE0FFF1FE20FD1
:100D5000F31F2CEF2F0DE20FF11DE15EFC4F2491EC
:100D600042E050E0491B510930E002C0359527951B
:100D70004A95E2F720FD83E0209123013091240180
:100D8000232B89F194ED910F9C3068F521E12F150B
:100D900050F54DE14F1538F1EEEEEF0D9601247050
:100DA0003327C2FE03C042E352E002C04AE452E0ED
:100DB000F0E0EE0FFF1FE40FF51F45915491EFE0B7
:100DC000F0E0E91BF10961E070E002C0660F771FF7
:100DD000EA95E2F746235723452B29F0232B11F000
:100DE00083E301C08BE090912501992309F400C1B0
:100DF000209122012111FCC099E09F1508F062C0EA
:100E00001A3008F45FC056EF5F0D46EF410FEBEA72
:100E10004E9FE12D1124E695E695E6959E2F990FBC
:100E20009E0F392F330F330F942F931BF0E0E25FA7
:100E3000FE4FE081EE2309F445C09A3008F042C02D
:100E40005E3008F03FC09695352F36954E2F50E016
:100E5000FA01E154F109E431F105B0F4E757FF4F2D
:100E60000C94CD0C41E013C043E011C044E00FC02E
:100E700045E00DC046E00BC047E009C048E007C0B0
:100E800049E005C04AE003C0422F01C042E050E003
:100E9000FA01EE0FFF1FEE0FFF1FEE0FFF1FE41B07
:100EA000F50BE30FF11DEE52FD4F449164E070E04D
:100EB000691B710950E002C0559547956A95E2F7A4
:100EC00040FD8FE3E9E2EF1508F060C0103108F44F
:100ED0005DC056ED5F0D40EF410FEBEA4E9FE12DF7
:100EE0001124E695E695E6959E2F990F9E0F392FD2
:100EF000330F330F942F931BF0E0ED5EFE4FE08134
:100F0000EE2309F443C09A3008F040C05E3008F088
:100F10003DC09695A52FA6954E2F50E0FA01E154BD
:100F2000F109E431F105B8F4E356FF4F0C94CD0C10
:100F300021E011C023E00FC024E00DC025E00BC06C
:100F400026E009C027E007C028E005C029E003C06B
:100F50002AE001C022E030E0F901EE0FFF1FEE0FA2
:100F6000FF1FEE0FFF1FE21BF30BEA0FF11DEE5206
:100F7000FD4F249144E050E0491B510930E002C08C
:100F8000359527954A95E2F720FD8FE31A3180F1D8
:100F9000212F30E0263231055CF5F9E1FF1540F5EF
:100FA0002F2D30E0263231051CF596EE910F46EEDE
:100FB0004F0DC3FE03C022E032E002C02AE132E05E
:100FC000E42FF0E0EE0FFF1FE20FF31F25913491A5
:100FD0006FE070E0691B710941E050E002C0440F0E
:100FE000551F6A95E2F724233523232B09F083E06C
:100FF000282F2370822E982F969596959370992E70
:1010000082958F708370F82E902F9695292F30E05F
:10101000812F8695A901480F511D40FF02C084E130
:1010200001C080E040912201442309F4E6C009F4A4
:10103000DAC0812F800F8C0D9FE0998393E39A8310
:101040009CE39B8393E09C838370E1E0F0E0EC0FF2
:10105000FD1FE80FF11D80810A3008F462C01630D0
:1010600008F45FC046EF400F3AEF310FEBEA3E9FC6
:10107000E12D1124E695E695E6959E2F990F9E0F9A
:10108000292F220F220F932F921BF0E0EE5FFE4FCD
:10109000E081EE2309F445C09A3008F042C04E309A
:1010A00008F03FC09695242F26954E2F50E0FA0168
:1010B000E154F109E431F105B0F4EF54FF4F0C9421
:1010C000CD0C41E013C043E011C044E00FC045E047
:1010D0000DC046E00BC047E009C048E007C049E04A
:1010E00005C04AE003C040E001C042E050E0FA0120
:1010F000EE0FFF1FEE0FFF1FEE0FFF1FE41BF50BA0
:10110000E20FF11DEE52FD4F249144E050E0491BE7
:10111000510930E002C0359527954A95E2F720FD48
:101120008FE3083208F45FC0163008F45CC0085240
:101130001650EBEA1E9FE12D1124E695E695E69503
:101140009E2F990F9E0F292F220F220F912F921B56
:10115000F0E0E85FFE4FE081EE2309F444C09A30EE
:1011600008F041C00E3008F03EC0969506954E2F0F
:1011700050E0FA01E154F109E431F105B0F4EB5328
:10118000FF4F0C94CD0C21E013C023E011C024E0EC
:101190000FC025E00DC026E00BC027E009C028E005
:1011A00007C029E005C02AE003C020E001C022E01A
:1011B00030E0F901EE0FFF1FEE0FFF1FEE0FFF1FD4
:1011C000E21BF30BE00FF11DEE52FD4F249144E0C2
:1011D00050E0491B510930E002C0359527954A95EA
:1011E000E2F720FD8FE3E82FE370482F4695469500
:1011F000437082958F7083702FC21A3031F01B308C
:1012000021F0113211F0103249F41A3021F011326C
:1012100021F480E303C080E301C080E2002311F0E9
:101220000F3349F41A3038F0123228F4011102C099
:1012300080E301C080E21C3008F47AC0412F50E006
:10124000403251050CF074C04C50510955954795EA
:10125000903208F06DC05527C901880F991F880F7B
:10126000991F880F991FF901EE0FFF1FE80FF91F53
:10127000EF5CFE4FE40FF51F808160913001062E78
:10128000000C770B461757070CF446C0FB01349649
:101290004E175F070CF040C0A0912F010A2E000CE2
:1012A000BB0B2A173B07C4F1FD0134962E173F07ED
:1012B0009CF5FA01E61BF70BBF01F901EA1BFB0BDA
:1012C000DF016430710540F5FF2334F1349724F5D4
:1012D00090912E01E92FF0E070912D01EE0FFF1F8C
:1012E000EE0FFF1FE70FF11DEE0FFF1FEE0FFF1FA9
:1012F000EA0FF11DEE59FD4F7491E3E0F0E0E61BBB
:10130000F109672F70E002C075956795EA95E2F7DD
:1013100060FF02C081E0890F882319F00E94D40188
:1013200007C0240F351F20FD02C080E101C080E00E
:101330009AED910F953128F5023018F10F3008F52C
:10134000163281F01A3381F0023081F00E3081F0D4
:10135000173281F0193381F0033081F00D3081F4C0
:1013600080E20FC080E30DC080E30BC080E309C0C2
:1013700080E307C080E205C080E203C080E201C0D4
:1013800085E198ED910F9C3058F5043048F1093013
:1013900038F5E92FE695E6959370E33008F593303C
:1013A000F8F4F0E0E85DFE4F208130E0F901EE0F47
:1013B000FF1FEE0FFF1FE20FF31F2CEF200FE20FB6
:1013C000F11DE15EFC4F249142E050E0491B5109C0
:1013D00030E002C0359527954A95E2F720FD83E07D
:1013E0002091230130912401232B79F194ED910F69
:1013F0009C3058F5023148F10E3138F5EEEEE00F31
:10140000960124703327C2FE03C042E352E002C0BB
:101410004AE452E0F0E0EE0FFF1FE40FF51F4591A4
:101420005491EFE0F0E0E91BF10961E070E002C0E7
:10143000660F771FEA95E2F746235723452B29F0DD
:10144000232B11F083E301C08BE0909125019923B8
:1014500009F4F9C0209122012111F5C00A3008F4E5
:1014600061C01A3008F45EC036EF300F56EF510FEE
:10147000EBEA5E9FE12D1124E695E695E6959E2F19
:10148000990F9E0F492F440F440F952F941BF0E0A6
:10149000E25FFE4FE081EE2309F444C09A3008F089
:1014A00041C03E3008F03EC0969536954E2F50E034
:1014B000FA01E154F109E431F105B0F4E752FF4FCC
:1014C0000C94CD0C41E013C043E011C044E00FC0C8
:1014D00045E00DC046E00BC047E009C048E007C04A
:1014E00049E005C04AE003C0422F01C042E050E09D
:1014F000FA01EE0FFF1FEE0FFF1FEE0FFF1FE41BA1
:10150000F50BE30FF11DEE52FD4F449164E070E0E6
:10151000691B710950E002C0559547956A95E2F73D
:1015200040FD8FE30A3208F45FC0103108F45CC05C
:10153000A6EDA00F40EF410FEBEA4E9FE12D1124E5
:10154000E695E695E6959E2F990F9E0F392F330F5E
:10155000330F942F931BF0E0ED5EFE4FE081EE23FE
:1015600009F442C09A3008F03FC0AE3008F03CC0E9
:101570009695A6954E2F50E0FA01E154F109E43119
:10158000F105B8F4E351FF4F0C94CD0C21E011C0EC
:1015900023E00FC024E00DC025E00BC026E009C009
:1015A00027E007C028E005C029E003C02AE001C009
:1015B00022E030E0F901EE0FFF1FEE0FFF1FEE0FEC
:1015C000FF1FE21BF30BEA0FF11DEE52FD4F2491BA
:1015D00044E050E0491B510930E002C035952795A1
:1015E0004A95E2F720FD8FE31A3168F1212F30E0B0
:1015F0002632310544F50A3130F1202F30E0263211
:1016000031050CF51A510A51C3FE03C022E032E045
:1016100002C02AE132E0E02FF0E0EE0FFF1FE20F00
:10162000F31F259134916FE070E0611B710941E077
:1016300050E002C0440F551F6A95E2F7242335237A
:10164000232B09F083E0E82FE370482F4695469559
:10165000437082958F7083702BB123706A2DA82DF3
:10166000B0E00A2C02C0B595A7950A94E2F7A0FD58
:101670002460A92DB0E0062E02C0B595A7950A9466
:10168000E2F7A0FD2860AF2DB0E0062E02C0B595B0
:10169000A7950A94E2F7A0FD2061F0E0062E02C0B3
:1016A000F595E7950A94E2F7E0FD206250E0062EFA
:1016B00002C0559547950A94E2F740FD206490E0FA
:1016C00002C0959587956A95E2F780FD20682BB951
:1016D00085B1816085B9F5E0FA95F1F7000085B133
:1016E0008E7F85B9E394EE200CF039C985B1846012
:1016F00085B925E02A95F1F7000085B18B7F85B982
:1017000085B18D7F85B980E005C045E04A95F1F748
:1017100000008F5F8715C8F385B1826085B9B394E7
:101720008FE08B1508F013C9A39491E09A1508F087
:1017300005C90F900F900F900F90DF91CF911F91DF
:101740000F91FF90EF90DF90CF90BF90AF909F9060
:101750008F907F9008958AB18C6F8AB984B1876029
:1017600084B987B18F6087B984B1877E84B985B128
:10177000886185B987B18F7C87B988B1806388B962
:1017800085B18E7F85B985B18B7F85B985B1826042
:1017900085B90E9461020E941304882319F081E038
:1017A00080932501C0E0D0E0CE010E948A042196FA
:1017B00080912201811110C080912B0190912C0108
:1017C0008C32914048F081E08093220188E691E0DC
:1017D000909321018093200180912201882329F197
:1017E0008091200190912101009729F00197909319
:1017F0002101809320018091200190912101892B6A
:1018000099F61B9B06C0349B04C01C9B02C03599F3
:10181000CBCF0E9461020E9471040E9413048823AE
:1018200019F281E080932501BFCF8091230190912F
:101830002401009729F001979093240180932301BC
:1018400093B181E0292F287093FD80E096B1FF24A9
:10185000F394392F307194FDF12C93B111E0492F9D
:10186000407194FD10E096B101E0592F507295FD42
:1018700000E0909125019923A9F0222331F0332330
:1018800021F0442311F051118FCF0E9461020E9478
:1018900071040E941304882309F486CF81E08093A9
:1018A000250182CF6EE171E00E945604882361F029
:1018B00040E060E08FEF0E949002882329F0809141
:1018C00030018150809330016CE171E08F2D0E94D6
:1018D0005604882361F040E060E081E00E949002BD
:1018E000882329F0809130018F5F8093300168E177
:1018F00071E0802F0E945604882369F041E060E087
:1019000080E00E949002882331F080912D018F5F4A
:10191000837080932D016AE171E0812F0E9456044B
:1019200081110FC011C040E061E080E00E94900290
:10193000882351F080912F018F5F80932F011F5FCB
:1019400001C010E0123078F38091260190912701B8
:10195000019690932701809326012091000130E0A9
:101960008217930708F420CF1092270110922601C6
:101970000E94380480912501811116CF40E060E07B
:101980000E949002811110CF0E941304882309F451
:101990000BCF81E08093250107CFEE0FFF1F05904D
:1019A000F491E02D0994A29FB001B39FC001A39FC1
:1019B000700D811D1124911DB29F700D811D112488
:0819C000911D0895F894FFCF7A
:1019C8001201535441474500434C45415200474199
:0819D8004D4500454E4400009E
:00000001FF
