:100000000EC028C027C026C025C024C023C022C0DF
:1000100021C020C023C31EC01DC01CC01BC0112492
:100020001FBECFE5D2E0DEBFCDBF10E0A0E6B0E05E
:10003000E0EAFEE002C005900D92A438B107D9F7BE
:1000400020E0A4E8B0E001C01D92AE3AB207E1F7AB
:1000500094D624C7D5CF87B38E7F87BB089587B347
:10006000816087BB88B38E7F88BB089587B38B7F01
:1000700087BB089587B3846087BB88B38B7F88BBB9
:1000800008958F929F92AF92BF92CF92DF92EF929C
:10009000FF920F931F93CF93DF937C014B015A0183
:1000A00080E7E81687E1F80630F00F2EFFE6EF2E26
:1000B000F7E1FF2EF02DC70168E572E0A6D6EB014F
:1000C000C70164E670E0A1D6CB0166E070E09DD682
:1000D000FC010F2EFAE0CF2ED12CF02DC701B60176
:1000E00094D67C01CB01B60190D6DD27C758DF4FEF
:1000F0004881D4014C93FF27E758FF4F4081F50119
:100100004083FC01FF27E758FF4F8081D9018C9382
:10011000F701FF27E758FF4F8081F8018083DF91C7
:10012000CF911F910F91FF90EF90DF90CF90BF90F4
:10013000AF909F908F9008951ABC13BE12BE8AB5DF
:1001400082608ABD8CE789BD89B7806189BF83B72A
:10015000826083BF0895F8946091AA007091AB000B
:100160008091AC009091AD007894089521E02093A7
:10017000A3001092A20060939E0070939F00809352
:10018000A0009093A100089587B38A6087BB88B3CD
:10019000877F88BB88B3826088BB089520919C00CC
:1001A0002223A9F010929C0020919700213021F485
:1001B00082E0809397000BC021E02093970060932A
:1001C000900070939100809392009093930080919F
:1001D0009B00882341F010929B0010929700109290
:1001E0009600109295000895CF92DF92EF92FF92C1
:1001F0000F931F93CF93DF932091610030916200A2
:10020000C90168E572E001D66B01F62FC90164E609
:1002100070E0FBD5CB0166E070E0F7D57C01E82FFC
:10022000CAE0D0E0C901BE01F0D58C01CB01BE010E
:10023000ECD5AC01382FC02F90919400913071F023
:1002400028F0923099F09330C9F01FC0C601992769
:1002500001966AE070E0EDD5F82F17C0C701992725
:10026000019666E070E0E5D5E82F0FC0CA01992736
:1002700001966AE070E0DDD5382F07C0C8019927E4
:1002800001966AE070E0D5D5C82F4F2F50E0BA0133
:10029000660F771F660F771F640F751FCB0182955E
:1002A0009295907F9827807F9827861B970BBC019B
:1002B000660F771F660F771F660F771F4E2F50E070
:1002C000CA01880F991F840F951FFC01EE0FFF1FB5
:1002D000E295F295F07FFE27E07FFE278E0F9F1FAD
:1002E000480F591FCB01840F951F232F30E0A90120
:1002F000440F551F440F551F240F351F220F331F66
:10030000820F931F8C0F911D909362008093610068
:100310008037974130F08FE697E1909362008093A9
:100320006100DF91CF911F910F91FF90EF90DF90CF
:10033000CF900895000008958EDE98DEFBDF8FDEFB
:10034000F9DF98DE08958BDEF5DF90DEF3DF83DEE4
:10035000F1DF0895882311F07EDE01C080DEEADF40
:1003600085DEE8DF87DE0895CF9375DEE3DF7EDE8E
:10037000E1DFC6B3C1707EDE8C2FCF910895CF939D
:10038000DF93D82FC7E00BC08D2F90E00C2E02C05A
:10039000959587950A94E2F78170DCDFC150CC23F4
:1003A0009CF7E2DFDF91CF910895CF93DF93D82FB1
:1003B000C62FC2DF8D2F880FE2DF8C2FE0DFC3DF77
:1003C000DF91CF910895FF920F931F93CF93DF9307
:1003D00000D000D0CDB7DEB7F62E8E010C5F1F4FD8
:1003E0009E012D5F3F4FAE014E5F5F4FBE016F5FBD
:1003F0007F4F47DEFF2019F08B8180688B836981F6
:1004000084E3D3DF6A8185E3D0DF6B8186E3CDDFD0
:100410006C8187E3CADF0F900F900F900F90DF91F0
:10042000CF911F910F91FF900895CF92DF92EF929D
:10043000FF9220919900211168C06B017C01AEDE12
:1004400080919700811105C010929600109295003E
:100450002FC0813069F519C08C599F4FAF4FBF4FE6
:100460008093900090939100A0939200B09393009A
:1004700080919500909196008F3627E1920728F49D
:1004800001969093960080939500809190009091B2
:100490009100A0919200B0919300B701A601481B72
:1004A000590B6A0B7B0B4436510561057105A4F6A7
:1004B0008091880090918900A0918A00B0918B0072
:1004C000C81AD90AEA0AFB0A24EFC21621E0D206AA
:1004D000E104F1049CF08C509E4FAF4FBF4F8093CE
:1004E000880090938900A0938A00B0938B0081E0EC
:1004F00090916000911180E08093600060916000B5
:1005000080919500909196005EDFFF90EF90DF90D4
:10051000CF900895EF92FF920F931F93CF93DF93A5
:1005200000D000D0CDB7DEB7F62EE42E8E010C5FE2
:100530001F4F9E012D5F3F4FAE014E5F5F4FBE01CB
:100540006F5F7F4F9EDDE11013C081E0F81659F018
:10055000F81638F082E0F81641F083E0F81639F02A
:1005600007C0198205C01A8203C01B8201C01C8209
:10057000698184E31ADF6A8185E317DF6B8186E393
:1005800014DF6C8187E311DF0F900F900F900F90B5
:10059000DF91CF911F910F91FF90EF9008951F93DE
:1005A000CF93DF93182F57DDC7E0D0E010C0C2DE35
:1005B0005DDDC0DEB09B09C081E090E00C2E02C082
:1005C000880F991F0A94E2F7D82B54DDC150CC2331
:1005D00074F7112311F043DD01C03DDDABDE46DDD4
:1005E000A9DE48DD38DD8D2FDF91CF911F91089571
:1005F000CF93A2DE89E4C3DE80E0D1DFC82FA3DE83
:100600008C2FCF910895F4DF843E41F08C3D41F072
:10061000843D41F08C3C41F484E0089581E00895EC
:1006200082E0089583E0089580E0089514DD1EDDE2
:1006300083ED90E30197F1F700C0000067E884E2E2
:10064000B4DE6FE384E3B1DE6FE385E3AEDE6FE338
:1006500086E3ABDE6FE387E3A8DE08951F920F9277
:100660000FB60F9211248F939F93AF93BF938091F6
:10067000AA009091AB00A091AC00B091AD000196A2
:10068000A11DB11D8093AA009093AB00A093AC0074
:10069000B093AD00BF91AF919F918F910F900FBE1E
:1006A0000F901F90189510BE1CBC88B38F7E88BB1E
:1006B0000895009711F4F7DF089510BE1CBC1FBC0D
:1006C0009C0140E050E060E472E48FE090E0C4D32D
:1006D000DA01C9010197A109B1098F3F9105A1056F
:1006E000B10529F020F08FEF90E0A0E0B0E08DBDE3
:1006F000282F26952BBD80E68CBD87B3806187BBF4
:1007000081E080BF0895CF92DF92EF92FF92CF9366
:10071000DF936B017C01EA0180EA9FE0CADF81E0A0
:100720008093A9001092A800CC0EDD1EE11CF11CE4
:10073000C092A400D092A500E092A600F092A7007B
:10074000DF91CF91FF90EF90DF90CF9008958823B5
:1007500049F080EA9FE0ADDF81E08093A8008093BC
:10076000A90008951092A8001092A9009CDF089596
:100770008F929F92AF92BF92CF92DF92EF92FF92B1
:1007800080919D00882309F46EC010929D00E3DCE7
:100790006B017C0180919900811150C0809198007B
:1007A000813009F03FC080918C0090918D00A09124
:1007B0008E00B0918F0046015701881A990AAA0A43
:1007C000BB0AC501B40124E630E040E050E044D368
:1007D000C901892B39F1609163007091640026177B
:1007E000370728F0109264001092630006C0621B65
:1007F000730B7093640060936300C501B40124E639
:1008000030E040E050E028D3A7019601261B370BCB
:10081000480B590B20938C0030938D0040938E0031
:1008200050938F0081E08093990088B3886088BBE3
:1008300088B38D7F88BB80E08ADF0AC01092990060
:1008400088B3826088BB88B3877F88BB80E07FDF06
:1008500081E080936000C0928800D0928900E0928D
:100860008A00F0928B00FF90EF90DF90CF90BF90C6
:10087000AF909F908F90089580919C00882309F4F9
:1008800053C010929C008091980081111DC08091EE
:10089000610090916200909364008093630081E016
:1008A0008093980058DC60938C0070938D00809347
:1008B0008E0090938F0060938400709385008093E6
:1008C00086009093870030C0813031F482E08093BD
:1008D000980080E03CDF28C08230A9F481E080935A
:1008E000980039DC60938C0070938D0080938E00AB
:1008F00090938F00609384007093850080938600AE
:100900009093870011C0833079F410929800809101
:10091000610090916200909364008093630080E096
:1009200016DF88B3877F88BB80919B00882389F07E
:1009300010929B0080919800882311F0823049F436
:1009400053DC8091610090916200909364008093E9
:10095000630080919A00882371F010929A00809130
:100960009800882311F0823031F4809194008F5FD9
:100970008370809394000895CF92DF92EF92FF925C
:10098000CF93DF932091A300213009F03EC0C090A7
:100990009E00D0909F00E090A000F090A1009B01ED
:1009A000AC012C193D094E095F097AF16B017C01FC
:1009B0002091A200253020F01092A30074DE25C003
:1009C00030E0220F331FF901E159FF4F80819181FF
:1009D000F901EB59FF4FC081D181009711F463DE1B
:1009E00001C067DEB701A6014C0F5D1F611D711DBF
:1009F00040939E0050939F006093A0007093A100CD
:100A00008091A2008F5F8093A200DF91CF91FF9031
:100A1000EF90DF90CF900895CF92DF92EF92FF9208
:100A20000F931F936B017C018091A300813021F40F
:100A3000C701B601A1DFC2C080919800813019F0D2
:100A400080E085DEBBC02091630030916400C90165
:100A5000A0E0B0E0880F991FAA1FBB1F880F991F45
:100A6000AA1FBB1FAC01BD01440F551F661F771F96
:100A7000440F551F661F771F840F951FA61FB71FB2
:100A8000AC01BD01440F551F661F771F440F551F52
:100A9000661F771F840F951FA61FB71F232B49F4CE
:100AA00083E08093980080E052DEC701B6015EDBF0
:100AB00085C0893E03E09007A105B10510F580913E
:100AC000840090918500A0918600B0918700A701D5
:100AD0009601281B390B4A0B5B0B2D37310541055D
:100AE00051050CF46BC0C0928400D0928500E09256
:100AF0008600F092870042E350E0C701B60103DEB2
:100B00005DC0893B3BE09307A105B10510F58091DD
:100B1000840090918500A0918600B0918700970194
:100B20008601081B190B2A0B3B0B0A3F11052105F7
:100B300031050CF443C0C0928400D0928500E0924D
:100B40008600F092870044E650E0C701B601DBDD85
:100B500035C0813117E29107A105B10540F489380C
:100B60009341A105B10530F088EE93E005C080ED1A
:100B700097E002C084EF91E040918400509185009D
:100B8000609186007091870097018601041B150B08
:100B9000260B370BA0E0B0E0081719072A073B0720
:100BA0006CF0C0928400D0928500E0928600F092B2
:100BB000870044E650E0C701B601A5DD1F910F9103
:100BC000FF90EF90DF90CF900895CF92DF92EF9259
:100BD000FF920F931F9320919900213009F0A7C035
:100BE0006B017C0149DE80919800813061F5409174
:100BF0008C0050918D0060918E0070918F00970154
:100C00008601041B150B260B370B04361105210535
:100C10003105CCF04C595F4F6F4F7F4F40938C00A4
:100C200050938D0060938E0070938F00209163002D
:100C3000309164002115310531F021503109309394
:100C4000640020936300813071F580918800909159
:100C50008900A0918A00B0918B00B701A601481BC2
:100C6000590B6A0B7B0B443F5140610571059CF0A9
:100C70008C509E4FAF4FBF4F809388009093890058
:100C8000A0938A00B0938B0081E090916000911155
:100C900080E080936000609160008091630090919B
:100CA000640091DB41C0833039F461E080916300DE
:100CB0009091640088DB38C0823039F461E0809123
:100CC0006300909164007FDB2FC080918800909139
:100CD0008900A0918A00B0918B00B701A601481B42
:100CE000590B6A0B7B0B4C325140610571059CF02E
:100CF000845D9E4FAF4FBF4F8093880090938900D3
:100D0000A0938A00B0938B0081E0909160009111D4
:100D100080E0809360004091600060919400809139
:100D2000610090916200F6DBC701B60175DE1F918C
:100D30000F91FF90EF90DF90CF9008950F931F9346
:100D40002091A9002223B1F02091A800211112C006
:100D50000091A4001091A5002091A6003091A70059
:100D6000DC01CB01801B910BA20BB30B1AF010928C
:100D7000A90099DC1F910F91089583EC99E00197E8
:100D8000F1F700C0000052DCD7D9FED9789461E0B9
:100D900080E090E018DBC0E0DED96B017C0133DC41
:100DA0008823E1F0C1111AC0823069F01CF481304F
:100DB00031F014C0833059F0843069F00FC091E0F5
:100DC00090939D000BC091E090939C0007C091E030
:100DD00090939B0003C091E090939A00C82FC8DCC9
:100DE00080919900811104C0C701B6011EDB03C0C8
:100DF000C701B601EADEC701B601A0DF83EC99E0C6
:100E00000197F1F700C00000C7CFAA1BBB1B51E13F
:100E100007C0AA1FBB1FA617B70710F0A61BB70B6A
:100E2000881F991F5A95A9F780959095BC01CD010F
:100E3000089597FB072E16F4009406D077FD08D08E
:100E4000E4DF07FC05D03EF4909581959F4F08950F
:100E5000709561957F4F0895A1E21A2EAA1BBB1BC6
:100E6000FD010DC0AA1FBB1FEE1FFF1FA217B30776
:100E7000E407F50720F0A21BB30BE40BF50B661F8C
:100E8000771F881F991F1A9469F760957095809550
:100E900090959B01AC01BD01CF010895F894FFCF5F
:100EA000012C012C015000280050002800C800B877
:100EB0000B0000D80E000094113F065B4F666D7D5D
:040EC000077F6F0039
:00000001FF
