:100000000EC028C027C02FC325C024C023C022C0D3
:1000100021C020C068C31EC01DC01CC01BC011244D
:100020001FBECFE5D2E0DEBFCDBF10E0A0E6B0E05E
:10003000EAEEF8E002C005900D92A83AB107D9F7B0
:1000400020E0A8EAB0E001C01D92A13CB207E1F7B0
:10005000E9D349C4D5CF87B38E7F87BB88B381608E
:1000600088BB089587B3816087BB88B38E7F88BBC8
:10007000089586B38170089590E012C0292F30E072
:10008000F901EE0FFF1FE458FF4F4081481307C0EE
:10009000220F331FF901E458FF4F818108959F5FBC
:1000A0009E3060F38FEF089587B3886087BB88B375
:1000B000877F88BB089587B3806187BB88B38F7EB5
:1000C00088BB089582E08ABD83E083BF8CE789BD49
:1000D00089B7806189BF089510BE8CB582608CBDE0
:1000E00083E68DBD8EBD89B7806489BF82E880BFFD
:1000F00008959C019091BD00911113C01092B4001D
:100100003093BF002093BE0081E08093C0007093C5
:100110006100609360001092B8001092B700809365
:10012000B900089568EE73E0E4DF089564E873E0D1
:10013000E0DF08958091BD00811119C081E08093B6
:10014000B4001092B30026E930E03093BF00209352
:10015000BE008093C0008093B9008AE194E0909340
:100160006100809360001092B8001092B70008956B
:100170008091B400882309F44CC08091B3008F5F54
:100180008093B3008091B300853050F01092B4009A
:100190001092C0001092B90088B3877F88BB089581
:1001A0008091B30090E0FC01EE0FFF1FEE0FFF1FE8
:1001B000E80FF91FED59FF4F208131813093BF00C7
:1001C0002093BE0021E02093C00024812223E1F08F
:1001D0002091BD00211118C021E02093B900FC013D
:1001E000EE0FFF1FEE0FFF1F8E0F9F1FFC01ED593B
:1001F000FF4F828193819093610080936000109201
:10020000B8001092B70008951092B90088B3877FA4
:1002100088BB08958DE08A95F1F70000089587B3B3
:100220008B7F87BB88B3846088BBF4DF089513DFBE
:10023000F6DF089587B3846087BB88B38B7F88BB64
:10024000E9DF089508DFEBDFE5DF0CDFE3DFF2DF56
:10025000089508DFDFDFE3DFDDDFFDDEDBDF0895AC
:10026000CF93DF93D82FC7E012C0E4DF8D2F90E04B
:100270000C2E02C0959587950A94E2F780FF02C084
:10028000EADE01C0EFDEC6DFCADFC4DFC150CC2327
:1002900064F7D0DFE0DEBEDFC2DFBCDFEADEC1E054
:1002A0008111C0E0C7DF8C2FDF91CF910895CF93EC
:1002B000DF93D82FC62FC6DF8D2FD2DF8C2FD0DF54
:1002C000C8DFDF91CF910895CF93C0E008C0EC2F35
:1002D000F0E0E856FF4F60E08081E9DFCF5FC43097
:1002E000B0F3CF91089581E08093BD008AE08093C0
:1002F000BC001092BB001092BA008FEF8093620096
:100300001092C0001092B9001092B40088B3877F99
:1003100088BB1092B6001092B50088B38F7E88BB60
:10032000D3DF0895CF93C0E016C08091AA00C8170C
:1003300050F4EC2FF0E0E555FF4FE081F0E0E4569B
:10034000FF4F608101C060E0EC2FF0E0E856FF4F06
:100350008081ADDFCF5FC43040F3CF9108958091AD
:10036000BD00811101C0DEDF08951092AA00F7DF01
:10037000089568DF88E474DF8FE872DF6ADF08952C
:100380001F93CF93DF93182F66DEC7E0D0E011C034
:1003900051DF40DF44DF3EDF6CDE882349F081E03F
:1003A00090E00C2E02C0880F991F0A94E2F7D82B18
:1003B000C150CC236CF73EDF112311F053DE01C096
:1003C0004ADE28DF2CDF26DF35DF45DE8D2FDF918B
:1003D000CF911F9108950F931F93CF93DF9300D078
:1003E00000D0CDB7DEB789E489838BE48A838DE4BE
:1003F0008B838FE48C8310E015C024DFE1E0F0E014
:10040000EC0FFD1FE10FF11D80812ADF80E0B8DFD6
:10041000082F1FDF802F8F7706FF03C02DDE8F3F51
:1004200021F41F5F143048F38FEF0F900F900F905F
:100430000F90DF91CF911F910F910895CF938091ED
:10044000BD0081111DC08091AA008823C9F0C0E0C1
:1004500015C068DF2FEF8DEE92E021508040904074
:10046000E1F700C0000030DF2FEF8DEE92E0215069
:1004700080409040E1F700C00000CF5FC33048F3F8
:10048000CF9108950F931F93CF93DF931091BD00E9
:10049000111124C000E01FC0DC1302C06FE301C0D3
:1004A000612FEC2FF0E0E856FF4F808100DFCF5F37
:1004B00001C0C0E0C43080F32FEF80E792E021500C
:1004C00080409040E1F700C00000DF5F01C0D0E055
:1004D000D43078F30F5F0230D0F3F6DEDF91CF91A6
:1004E0001F910F9108952091BD002111BBC08C3048
:1004F0009105A9F43ADF88B38F7E88BB8091A9006B
:10050000813009F0AFC0EFEAF0E010821182128270
:1005100013821092A90082E390E004DE08958D30EA
:10052000910551F48091AA00882309F49BC0815061
:100530008093AA0014DF08958B30910559F481E06F
:100540008093A90012DF88B38F7E88BB84E690E099
:10055000E9DD08958A30910578F4E091AA00E4304D
:1005600008F080C091E09E0F9093AA00F0E0E5555E
:10057000FF4F8083F4DE08950A9709F073C08091DD
:10058000AA00843099F08091A8008F5F8093A80022
:100590008CE291E0CBDD52DF88B38F7E88BB809107
:1005A000A800843008F09FDEE0DE08958091A90065
:1005B000813079F020E041E02FC0822F90E0FC01F3
:1005C000E555FF4F3081FC01E155FF4F30832F5F30
:1005D00001C020E0243088F31092A900C6DE80E537
:1005E00090E0A0DD2FEF8DEE92E021508040904012
:1005F000E1F700C0000080E590E094DD0895822FCF
:1006000090E0FC01E555FF4F3081FC01E155FF4FC3
:100610008081381340E02F5F243088F3442381F039
:100620001092AA001092A80085DD2CDF88B38061AB
:1006300088BB80EB94E09093B6008093B50008955A
:100640008091A8008F5F8093A8008CE291E06EDD1E
:10065000F5DE88B38F7E88BB8091A800843008F0D7
:1006600042DE83DE08951F920F920FB60F9211247F
:100670002F933F938F939F938091B900811108C06E
:1006800088B3877F88BB1092B8001092B70022C051
:100690008091B7009091B8008C599F4F9093B8000B
:1006A0008093B7002091B7003091B800809160002E
:1006B000909161002817390768F08091600090914F
:1006C0006100892B39F086B3886086BB1092B80030
:1006D0001092B7009F918F913F912F910F900FBE75
:1006E0000F901F9018951F920F920FB60F92112422
:1006F0002F933F934F935F936F937F938F939F932A
:10070000AF93BF93EF93FF938091BD008823D9F1FE
:100710008091BC008823E1F08091BA009091BB00E9
:1007200001969093BB008093BA00883E934008F4F2
:1007300068C01092BB001092BA008091BC00882360
:1007400009F45FC08091BC0081508093BC0059C007
:100750001092BD001092C0001092B9001092B40027
:1007600088B3877F88BB1092B6001092B50088B31B
:100770008F7E88BB8FEF809362001092A80010924A
:10078000AA00A2DD3EC08091B5009091B600892BF1
:1007900071F08091B5009091B60001979093B600EA
:1007A0008093B500892B19F488B38F7E88BB809124
:1007B000C0008823E9F08091BE009091BF00892B92
:1007C00051F08091BE009091BF0001979093BF00BF
:1007D0008093BE0016C01092C0001092B90088B37A
:1007E000877F88BB8091B400882359F0C1DC09C0A1
:1007F0008091B400811105C01092B90088B3877F41
:1008000088BBFF91EF91BF91AF919F918F917F91A5
:100810006F915F914F913F912F910F900FBE0F906D
:100820001F90189504DDA5DD4FDD3EDC44DC4ADC7D
:1008300053DC789400E08091BD00882351F18091D1
:10084000BC00811101C081E0909162008917C1F163
:10085000809362006AE03BD0D82FC92F60E088E621
:1008600026DD60E08AE623DDDD2341F0ED2FF0E0B8
:10087000E456FF4F60818CE61ADD03C060E08CE631
:1008800016DDEC2FF0E0E456FF4F60818EE60FDDC1
:1008900017C0A1DDC82F81E0CF3F09F480E0D82F39
:1008A00001110BC0CF3F59F088E290E03BDC8C2F68
:1008B000CC0F990B18DE0D2F03C0082F01C0082F95
:1008C0008FE39CE90197F1F700C00000B4CF991BBA
:1008D00079E004C0991F961708F0961B881F7A9537
:0A08E000C9F780950895F894FFCF42
:1008EA00E803FF96001A04012800000000DC005209
:1008FA0003012800000000B400BC020144014C02BC
:10090A0054035C0B45044D05550646074E08560927
:10091A00470A4F00570C5F0D686A6C6E3F065B4FC3
:08092A00666D7D077F6F000080
:00000001FF
